{
    "contractName": "FL",
    "abi": [
        {
            "constant": true,
            "inputs": [
                {
                    "name": "",
                    "type": "uint256"
                }
            ],
            "name": "array",
            "outputs": [
                {
                    "name": "",
                    "type": "string"
                }
            ],
            "payable": false,
            "stateMutability": "view",
            "type": "function"
        },
        {
            "constant": false,
            "inputs": [
                {
                    "name": "_encoded_parameters",
                    "type": "string"
                }
            ],
            "name": "setModelParameters",
            "outputs": [],
            "payable": false,
            "stateMutability": "nonpayable",
            "type": "function"
        },
        {
            "constant": true,
            "inputs": [],
            "name": "getModelParameter",
            "outputs": [
                {
                    "name": "",
                    "type": "string"
                }
            ],
            "payable": false,
            "stateMutability": "view",
            "type": "function"
        },
        {
            "constant": true,
            "inputs": [],
            "name": "owner",
            "outputs": [
                {
                    "name": "",
                    "type": "address"
                }
            ],
            "payable": false,
            "stateMutability": "view",
            "type": "function"
        },
        {
            "constant": false,
            "inputs": [
                {
                    "name": "value",
                    "type": "string"
                }
            ],
            "name": "updateModelParameter",
            "outputs": [],
            "payable": false,
            "stateMutability": "nonpayable",
            "type": "function"
        },
        {
            "constant": false,
            "inputs": [
                {
                    "name": "i",
                    "type": "uint256"
                }
            ],
            "name": "arregate",
            "outputs": [],
            "payable": false,
            "stateMutability": "nonpayable",
            "type": "function"
        },
        {
            "constant": true,
            "inputs": [],
            "name": "score",
            "outputs": [
                {
                    "name": "",
                    "type": "uint256"
                }
            ],
            "payable": false,
            "stateMutability": "view",
            "type": "function"
        },
        {
            "inputs": [],
            "payable": false,
            "stateMutability": "nonpayable",
            "type": "constructor"
        },
        {
            "anonymous": false,
            "inputs": [
                {
                    "indexed": false,
                    "name": "newparameters",
                    "type": "string"
                }
            ],
            "name": "onset",
            "type": "event"
        }
    ],
    "bytecode": "608060405234801561001057600080fd5b5060028054600160a060020a031916331790556105a2806100326000396000f3006080604052600436106100825763ffffffff7c010000000000000000000000000000000000000000000000000000000060003504166338d94193811461008757806361001f401461011457806384ced6e51461016f5780638da5cb5b14610184578063c2d9f554146101c2578063e443dbf91461021b578063efedc66914610233575b600080fd5b34801561009357600080fd5b5061009f60043561025a565b6040805160208082528351818301528351919283929083019185019080838360005b838110156100d95781810151838201526020016100c1565b50505050905090810190601f1680156101065780820380516001836020036101000a031916815260200191505b509250505060405180910390f35b34801561012057600080fd5b506040805160206004803580820135601f810184900484028501840190955284845261016d9436949293602493928401919081908401838280828437509497506103019650505050505050565b005b34801561017b57600080fd5b5061009f6103e0565b34801561019057600080fd5b5061019961048f565b6040805173ffffffffffffffffffffffffffffffffffffffff9092168252519081900360200190f35b3480156101ce57600080fd5b506040805160206004803580820135601f810184900484028501840190955284845261016d9436949293602493928401919081908401838280828437509497506104ab9650505050505050565b34801561022757600080fd5b5061016d6004356104dc565b34801561023f57600080fd5b506102486104df565b60408051918252519081900360200190f35b600080548290811061026857fe5b600091825260209182902001805460408051601f60026000196101006001871615020190941693909304928301859004850281018501909152818152935090918301828280156102f95780601f106102ce576101008083540402835291602001916102f9565b820191906000526020600020905b8154815290600101906020018083116102dc57829003601f168201915b505050505081565b7fafb180742c1292ea5d67c4f6d51283ecb11e49f8389f4539bef82135d689e118816040518080602001828103825283818151815260200191508051906020019080838360005b83811015610360578181015183820152602001610348565b50505050905090810190601f16801561038d5780820380516001836020036101000a031916815260200191505b509250505060405180910390a1600080546001810180835591805282516103db917f290decd9548b62a8d60345a988386fc84ba6bc95484008f6362f93160ef3e563019060208501906104e5565b505050565b6000805460609160001982018281106103f557fe5b600091825260209182902001805460408051601f60026000196101006001871615020190941693909304928301859004850281018501909152818152928301828280156104835780601f1061045857610100808354040283529160200191610483565b820191906000526020600020905b81548152906001019060200180831161046657829003601f168201915b505050505091505b5090565b60025473ffffffffffffffffffffffffffffffffffffffff1681565b806000808154811015156104bb57fe5b9060005260206000200190805190602001906104d89291906104e5565b5050565b50565b60015481565b828054600181600116156101000203166002900490600052602060002090601f016020900481019282601f1061052657805160ff1916838001178555610553565b82800160010185558215610553579182015b82811115610553578251825591602001919060010190610538565b5061048b926105739250905b8082111561048b576000815560010161055f565b905600a165627a7a723058208dd4b222574fc82ef5b4c48ac53e89d437d03d4d3cfcc95da4a87eb11081642e0029",
    "sourcePath": "/home/kyle/fisco/python-sdk/contracts/FL.sol",
    "compiler": {
        "name": "solc",
        "version": "0.4.26+commit.4563c3fc"
    },
    "functionHashes": {
        "array(uint256)": "38d94193",
        "arregate(uint256)": "e443dbf9",
        "getModelParameter()": "84ced6e5",
        "owner()": "8da5cb5b",
        "score()": "efedc669",
        "setModelParameters(string)": "61001f40",
        "updateModelParameter(string)": "c2d9f554"
    },
    "gasEstimates": {
        "creation": {
            "codeDepositCost": "288400",
            "executionCost": "20623",
            "totalCost": "309023"
        },
        "external": {
            "array(uint256)": "infinite",
            "arregate(uint256)": "248",
            "getModelParameter()": "infinite",
            "owner()": "465",
            "score()": "516",
            "setModelParameters(string)": "infinite",
            "updateModelParameter(string)": "infinite"
        }
    }
}